:100000000C9440010C94600A0C948D0A0C946801C5
:100010000C9468010C9468010C9468010C946801BC
:100020000C9468010C9468010C9468010C946801AC
:100030000C9468010C9468010C9468010C9468019C
:100040000C94BA0A0C9468010C94670D0C94990DE9
:100050000C9468010C9468010C9468010C9468017C
:100060000C9468010C946801504120506F776572C0
:1000700009203D2025530D0A00435243204C656E54
:1000800067746809203D2025530D0A004D6F646593
:100090006C0909203D2025530D0A0044617461203C
:1000A0005261746509203D2025530D0A0044594EC4
:1000B00050442F4645415455524500434F4E464902
:1000C000470052465F53455455500052465F4348DF
:1000D00000454E5F52584144445200454E5F4141F5
:1000E0000052585F50575F50302D360054585F41D2
:1000F0004444520052585F414444525F50322D35BF
:100100000052585F414444525F50302D31000D0A77
:1001100000253032780020307800255309256320EF
:100120003D000D0A00203078253032780025530933
:100130002563203D004F4253455256455F54583D7C
:10014000253032783A20504F4C535F434E543D2572
:1001500078204152435F434E543D25780D0A0053A9
:1001600054415455530909203D20307825303278C8
:100170002052585F44523D25782054585F44533DE7
:100180002578204D41585F52543D25782052585FC4
:10019000505F4E4F3D25782054585F46554C4C3D9E
:1001A00025780D0A0000010203040511121314152D
:1001B000160A0B0C0D0E0FD501CE01C601BF015062
:1001C000415F4D41580050415F4849474800504108
:1001D0005F4C4F570050415F4D494E00F101EA011D
:1001E000E2013136206269747300382062697473E9
:1001F0000044697361626C6564000802FE016E521E
:100200004632344C30312B006E524632344C303151
:100210000025021F0217023235304B425053003284
:100220004D42505300314D42505300000000080031
:1002300002010000030407000000000000000001AC
:10024000020408102040800102040810200102046A
:10025000081020040404040404040402020202023C
:100260000203030303030300000000250028002B02
:100270000000000000240027002A0000EF03C90D41
:1002800011241FBECFEFD8E0DEBFCDBF11E0A0E04C
:10029000B1E0EAEFF7E202C005900D92AE3DB10782
:1002A000D9F727E0AEEDB1E001C01D92A730B2074B
:1002B000E1F712E0C0E8D2E004C02297FE010E94FC
:1002C000740FCC37D107C9F70E940D0E0C94FB13A5
:1002D0000C940000E0916006F09161060190F081BD
:1002E000E02D682F80E696E00994FF920F931F930C
:1002F000CF93DF9300D01F92CDB7DEB785E2F82E03
:1003000084E496E00E944007882309F49DC061E0E0
:100310008FE00E94EC0B9091ED018091E90198171C
:1003200009F471C060E082E10E94EC0B8FB7F89491
:100330002091ED019091E901291761F09091EC0174
:100340000091EA011091EB0125E2929F000D111D31
:10035000112402C000E010E08FBF0E94040BF801DE
:1003600060837183828393838091DE01848384E43C
:1003700096E00E940207813208F080E2482FB8011F
:100380006B5F7F4F84E496E00E944407E091080190
:1003900080910901F0E0E81BF109E00FF11F858170
:1003A0008695869590E081975CF52FB7F8948091BB
:1003B000ED016091E901861711F18091EC01A091A6
:1003C000EA01B091EB01F5E28F9FA00DB11D112460
:1003D000A017B10731F0F8018F2D01900D928A9589
:1003E000E1F78091EC0190E0019670E00E94FE0E32
:1003F0008093EC018091ED018F5F8093ED012FBF21
:100400001092DE011CC061E082E10E94EC0B809141
:10041000DE018F3F19F08F5F8093DE019E012F5F19
:100420003F4FAE014E5F5F4FBE016D5F7F4F84E473
:1004300096E00E94500784E496E00E94560660E031
:100440008FE00E94EC0B5CCF0F900F900F90DF912C
:10045000CF911F910F91FF900895EF92FF920F930C
:100460001F93CF93DF938B01EC01080F191F94E1C9
:10047000E92E91E0F92EC017D10761F089911F9202
:100480008F93FF92EF920E94CC0F0F900F900F90DE
:100490000F90F1CF60E280E696E0DF91CF911F915F
:1004A0000F91FF90EF900C945C0E7F928F929F9231
:1004B000AF92BF92CF92DF92EF92FF920F931F9372
:1004C000CF93DF931F92CDB7DEB761E081E10E9449
:1004D000EC0B6091060184E496E00E94F5066091C1
:1004E000070170E084E496E00E94800784E496E0CF
:1004F0000E9445086091130184E496E00E94FC0686
:100500006091090184E496E00E945C0820910A0150
:1005100030910B0140910C0150910D0160910E0141
:1005200070910F01809110019091110100910801CB
:10053000E091090110E00E1B1109E3E0000F111F0B
:10054000EA95E1F70E94360F79018A019B01AC011F
:1005500060E084E496E00E94CD0984E496E00E9485
:10056000960942E050E065E771E080E00E94400AB1
:1005700020910A0130910B0140910C0150910D0125
:1005800060910E0170910F01809110019091110105
:10059000E9EEF1E0229308E00E94360FA1E0E43E8C
:1005A000FA07C1F78EE4898361E070E0CE0101961D
:1005B0000E942D026EE070E086E091E00E942D0224
:1005C00069E171E080E696E00E945A0E60910601B2
:1005D0004AE050E080E696E00E94E60E67E271E0B5
:1005E00080E696E00E945A0E80910701813049F022
:1005F00028F0823061F461E471E005C065E371E0E8
:1006000002C06BE371E080E696E00E94670E69E449
:1006100071E080E696E00E945A0EE0900A01D090C8
:100620000B01C0900C01B0900D01A0900E019090B4
:100630000F018090100170901101F0900801FA9460
:10064000F7FC2CC0E0910801809109010F2D1127C2
:1006500007FD1095F0E0E81BF1090E171F07BCF02D
:1006600023E0000F111F2A95E1F72E2D3D2D4C2D73
:100670005B2D6A2D792D882D972D0E94360F40E134
:1006800050E0622F80E696E00E94DF0ED8CF69E549
:1006900071E080E696E00E945A0ED1CF60ED71E0E5
:1006A00080E696E00E94670E6CE571E080E696E0D9
:1006B0000E945A0E609113014AE050E080E696E0F5
:1006C0000E94E60E6AE671E080E696E00E945A0E0D
:1006D000609112014AE050E080E696E00E94E60E4A
:1006E00060ED71E080E696E00E94670E84E496E09B
:1006F0000E94F50860ED71E080E696E00E94670ECA
:1007000068E771E080E696E00E94670E60E081E1B4
:100710000E94EC0B0F90DF91CF911F910F91FF90F2
:10072000EF90DF90CF90BF90AF909F908F907F9091
:10073000089561E08EE00E94B30B61E08FE00E94BB
:10074000B30B61E080E10E94B30B61E081E10E94A4
:10075000B30B61E082E10E94B30B60E08EE00E9487
:10076000EC0B60E08FE00E94EC0B60E080E10E9407
:10077000EC0B60E081E10E94EC0B60E082E10E9402
:10078000EC0B26E040E052EC61E070E080E696E0A1
:100790000E94050D60E070E08AE691E00E94810F02
:1007A00065E871E080E696E00E94670E84E496E0DA
:1007B0000E94E40760E084E496E00E94720740E053
:1007C00060E084E496E00E94530860E082E00E94CA
:1007D000B30B61E08EE00E94EC0B0C9455024AE0F2
:1007E00069E084E496E00E94E4068EE18093E901EA
:1007F0008EEE91E09093EB018093EA011092EC0170
:100800001092ED010895DF92EF92FF920F931F93E4
:10081000CF93DF931F92CDB7DEB715E2D12E809133
:10082000ED01882309F4A8C061E080E10E94EC0B8F
:100830002FB7F8948091ED018823B9F08091EC01F5
:100840003091ED016091E90170E090E0831B910926
:10085000860F971F0E94FE0E0091EA011091EB0196
:100860008D9D000D111D112402C000E010E02FBF6E
:10087000E090090180910801F12CE81AF1082AE0C2
:10088000E20EF11CF80180819181A281B3818093F5
:10089000DF019093E001A093E101B093E201848134
:1008A0008093E3018091080140910901E0910801E2
:1008B000209109013091120190E0841B91098E0D65
:1008C0009F1DA3E0880F991FAA95E1F70996F0E014
:1008D000E21BF109E00FF11F258126952695F8E02E
:1008E0002F9F800D911D112428E0329F800D911DB6
:1008F00011240796B3E095958795BA95E1F789831A
:1009000061E070E0CE0101960E942D02B7018FEDEB
:1009100091E00E942D02698170E06E197F09C80183
:1009200005960E942D02F8018481882371F066E902
:1009300071E080E696E00E945A0E4AE050E0F8012D
:10094000648180E696E00E94DF0E60ED71E080E653
:1009500096E00E94670E9FB7F8948091ED0188237E
:1009600029F08091ED0181508093ED019FBF60E0FF
:1009700080E10E94EC0B53CF80E696E00E94220CAF
:100980000F9790F180E696E00E943B0C9C01332784
:10099000F6E035952795FA95E1F721303105F1F428
:1009A0008F7399270E97D1F4F89406E011E080E652
:1009B00096E00E943B0CF80181938F01F1E0043135
:1009C0001F07A9F71092EC011092ED0184E496E064
:1009D0000E9456060E945502789406C06EE971E0A6
:1009E00080E696E00E94670E0F90DF91CF911F91F5
:1009F0000F91FF90EF90DF900895CF93CFB7F894C9
:100A000080915206811127C0EDE5F2E08491E9E47E
:100A1000F2E09491E82FF0E0EE0FFF1FEF58FD4F4A
:100A2000A591B4918C91892321F461E08AE00E9420
:100A3000EC0B61E08AE00E94B30B8CB580618CBD49
:100A40008CB580648CBD61E08DE00E94B30B61E0E9
:100A50008BE00E94B30B809152068F5F8093520609
:100A6000CFBFCF9108958EBD00000DB407FEFDCF1E
:100A70008EB508952CB52F7D2CBD2CB5237F2CBDB4
:100A80002CB52C7F2CBD2DB521602DBDFC018181A5
:100A90000C94EC0BFC0180810C94EC0BCF92DF9258
:100AA000EF92FF920F931F93CF93DF9300D0CDB7B8
:100AB000DEB78C01E62EF22E60E049835A830E9455
:100AC0003A058E2D8F710E943305E82E4981C42E80
:100AD0005A81D52EF40EFC1439F08FEF0E943305A5
:100AE000F60181936F01F7CF61E0C8010E943A05DA
:100AF0008E2D0F900F90DF91CF911F910F91FF904E
:100B0000EF90DF90CF9008951F93CF93DF93EC0188
:100B1000162F60E00E943A05812F8F710E943305E5
:100B20008FEF0E943305182F61E0CE010E943A0535
:100B3000812FDF91CF911F910895CF92DF92EF9295
:100B4000FF920F931F93CF93DF9300D0CDB7DEB703
:100B50008C01E62EF22E60E049835A830E943A050A
:100B60008E2D8F7180620E943305E82E4981C42E3C
:100B70005A81D52EF40EFC1431F0F60181916F01EB
:100B80000E943305F8CF61E0C8010E943A058E2D1E
:100B90000F900F90DF91CF911F910F91FF90EF90E9
:100BA000DF90CF900895EF92FF921F93CF93DF9342
:100BB0001F92CDB7DEB77C01162F60E049830E94FB
:100BC0003A05812F8F7180620E943305182F498169
:100BD000842F0E94330561E0C7010E943A05812FEE
:100BE0000F90DF91CF911F91FF90EF900895AF92FA
:100BF000BF92CF92DF92EF92FF920F931F93CF930A
:100C0000DF931F92CDB7DEB78C01D62EFC01E480B6
:100C1000F42EE41608F4FE2CF8018581811102C03F
:100C2000EF1801C0E12C60E0C80179830E943A0509
:100C300081E60E943305C82EAD2C7981B72EFD0CBC
:100C4000FA1439F08FEF0E943305F50181935F01AB
:100C5000F7CFEE2029F08FEF0E943305EA94F9CF09
:100C600061E0C8010E943A058C2D0F90DF91CF9171
:100C70001F910F91FF90EF90DF90CF90BF90AF90BA
:100C800008951F93CF93DF93EC01162F60E00E942D
:100C90003A05812F0E943305182F61E0CE010E9492
:100CA0003A05812FDF91CF911F91089562EE0C9448
:100CB000410661EE0C9441066FEF0C944106862FBD
:100CC00090E0262F21701F922F939595879587701E
:100CD00099279F938F9364FB882780F91F928F93A6
:100CE00065FB882780F91F928F9366FB882780F920
:100CF0001F928F931F926F938FE591E09F938F9335
:100D00000E94E00F8DB79EB70E960FB6F8949EBF67
:100D10000FBE8DBF0895AF92BF92DF92EF92FF9208
:100D20000F931F93CF93DF9300D0CDB7DEB78C0125
:100D3000F42EE22ECB0169837A830E94780F6981B9
:100D40007A81089710F489E001C080E01F928F93A8
:100D50007F936F93EDE2F1E0FF93EF930E94E00F3A
:100D6000EF0C0F900F900F900F900F900F9035E2B7
:100D7000A32E31E0B32EFE1499F0DD24D394DF0CC2
:100D80006F2DC8010E9484051F928F93BF92AF926E
:100D90000E94E00F0F900F900F900F90FD2CEBCF63
:100DA00082E291E09F938F930E94E00F0F900F904B
:100DB0000F900F90DF91CF911F910F91FF90EF90C7
:100DC000DF90BF90AF900895FC0160834183128251
:100DD000138280E284831582168217821086118620
:100DE00012861386148615860895462F603808F0FB
:100DF0004FE765E00C94D305613208F060E2FC0136
:100E000064830895FC0184810895CF93DF93EC01FE
:100E100060E00E94840581FD12C060E0CE010E9466
:100E20008405482F426060E0CE010E94D30565E052
:100E300070E080E090E0DF91CF910C94270BDF9180
:100E4000CF9108950F931F93CF93DF938C01EB0104
:100E500067E10E94840580FD0BC0209759F0C8010E
:100E60000E945C0690E0959587958770888302C004
:100E700080E001C081E0DF91CF911F910F91089533
:100E800060E070E00C942207CF93DF93EC010E94A6
:100E9000F70540E767E0CE01DF91CF910C94D305D1
:100EA000EF92FF920F931F93CF93DF93EB018A0191
:100EB000790140E767E00E94D30585FB992790F907
:100EC000988384FB992790F9F801908386FB882703
:100ED00080F9F7018083DF91CF911F910F91FF90EF
:100EE000EF900895662311F04FE301C040E061E008
:100EF0000C94D30566E00E9484058670869508955B
:100F0000EF92FF920F931F93CF93DF931F92CDB772
:100F1000DEB77C018B0166E00E948405F701128236
:100F2000282F277D0230110511F4206207C00130FF
:100F3000110521F481E0F70182832860422F66E0E9
:100F4000C70129830E94D30566E0C7010E9484057A
:100F50002981821721F0F701128280E001C081E02F
:100F60000F90DF91CF911F910F91FF90EF90089517
:100F700066E00E948405282F2872203231F081E03B
:100F800090E0283021F080E0089582E090E008951C
:100F90000F931F93CF93DF93EC018B0160E00E94CE
:100FA0008405482F437F0115110531F001301105EB
:100FB00011F4486001C04C6060E0CE01DF91CF9138
:100FC0001F910F910C94D305CF93DF93EC0161E057
:100FD00088810E94B30B61E089810E94B30B0E945B
:100FE000FD0460E0CE010E944A0561E0CE010E944E
:100FF0003A0565E070E080E090E00E94270B4FE545
:1010000064E0CE010E94D30562E070E0CE010E9450
:101010008007882311F081E08B8360E070E0CE01CF
:101020000E94800762E070E0CE010E94C80740E79E
:1010300067E0CE010E94D3056CE4CE010E94F50664
:10104000CE010E945606CE010E945906CE010E9492
:10105000050760E0CE010E948405482F4E7F60E0C6
:10106000CE01DF91CF910C94D30560E00E948405FE
:1010700083FF05C082FF06C082E090E0089580E013
:1010800090E0089581E090E00895CF93DF93EC0124
:1010900060E00E948405482F477F60E0CE01DF9129
:1010A000CF910C94D30520E1629FB00111244F70C1
:1010B000462B64E00C94D305462F4250443018F47C
:1010C00063E00C94D305089563E00E948405837067
:1010D0008E5F08956F927F928F929F92AF92BF9290
:1010E000CF92DF92EF92FF920F931F93CF93DF93F4
:1010F000CDB7DEB727970FB6F894DEBF0FBECDBFD2
:101100006C01142F722ECB016E837F830E94780FA7
:101110006E817F81089710F489E001C080E01F9202
:101120008F937F936F938AE191E09F938F930E94B7
:10113000E00F710E0F900F900F900F900F900F9087
:10114000CE0101967C0156E1A52E51E0B52E61E15C
:10115000862E61E0962E171559F1C6010E9464088B
:10116000082F66246394610E282FA701612FC60102
:101170000E944E05BF92AF920E94E00FF701E00F70
:10118000F11D8F010F900F90015011090E151F05D1
:1011900068F0F80180811F928F939F928F920E9436
:1011A000E00F0F900F900F900F90EECF162DD3CF32
:1011B0008EE091E09F938F930E94E00F0F900F902D
:1011C00027960FB6F894DEBF0FBECDBFDF91CF914B
:1011D0001F910F91FF90EF90DF90CF90BF90AF9055
:1011E0009F908F907F906F900895CF93DF93EC0145
:1011F0000E945C06682FCE010E945F0622E04AE052
:1012000061E071E0CE010E946A0824E04CE064EFE6
:1012100070E0CE010E948B0621E040E16CEE70E0B0
:10122000CE010E946A0826E041E161EE70E0CE0145
:101230000E948B0621E041E06BED70E0CE010E9440
:101240008B0621E042E061ED70E0CE010E948B064A
:1012500021E045E06BEC70E0CE010E948B0621E0BE
:1012600046E062EC70E0CE010E948B0621E040E097
:101270006BEB70E0CE010E948B0622E04CE16DEA40
:1012800070E0CE010E948B06CE010E94B807880F45
:10129000991F8F5E9D4FFC01859194919F938F9331
:1012A0008BE990E09F938F930E94E00FEB81F0E039
:1012B000EE0FFF1FE650FE4F859194919F938F9301
:1012C0008CE890E09F938F930E94E00FCE010E94E4
:1012D0003508880F991F84529E4FFC018591949187
:1012E0009F938F9389E790E09F938F930E94E00FE5
:1012F000CE010E947A07E82FF0E0EE0FFF1FE954BD
:10130000FE4F859194919F938F9388E690E09F93F1
:101310008F930E94E00F8DB79EB740960FB6F8945A
:101320009EBF0FBE8DBFDF91CF910895CF93DF9306
:10133000EC010E94050760E0CE010E948405482F61
:10134000416060E0CE010E94D30540E767E0CE0136
:101350000E94D3052E813F81488559856A857B850A
:101360008C859D85A0E00E94520F59F0CE010E940D
:101370006408282FAE014A5F5F4F6AE0CE010E94E9
:101380009D05CE010E945606CE010E94590661E0DD
:10139000CE01DF91CF910C944A05BF92CF92DF929C
:1013A000EF92FF920F931F93CF93DF93CDB7DEB7EA
:1013B00028970FB6F894DEBF0FBECDBF6C01B62ED6
:1013C000E982FA820B831C832D833E834F835887E7
:1013D00061110AC0F601E682F78200871187228731
:1013E00033874487558707C0F6E0F61708F438C0FE
:1013F00081E068130AC0C6010E946408EB2DF0E08A
:10140000EF54FE4F6491282F06C0E62FF0E0EF5412
:10141000FE4F649121E0AE014F5F5F4FC6010E9415
:101420009D050B2D10E0F801E555FE4F6491F60186
:101430004481C6010E94D30562E0C6010E94840572
:10144000F801EB55FE4F049121E030E001C0220F7E
:101450000A95EAF7822B482F62E0C6010E94D30565
:1014600028960FB6F894DEBF0FBECDBFDF91CF91A7
:101470001F910F91FF90EF90DF90CF90BF90089554
:101480008230E8F4E82FF0E0EE0FFF1FED5AF94F3D
:1014900071836083813041F0809169008C7F842B5F
:1014A00080936900E89A089580916900440F551F60
:1014B000440F551F837F842B80936900E99A089518
:1014C0001F920F920FB60F9211242F933F934F93B9
:1014D0005F936F937F938F939F93AF93BF93EF939C
:1014E000FF938091530690915406892B29F0E09147
:1014F0005306F09154060995FF91EF91BF91AF917A
:101500009F918F917F916F915F914F913F912F911B
:101510000F900FBE0F901F9018951F920F920FB64D
:101520000F9211242F933F934F935F936F937F9369
:101530008F939F93AF93BF93EF93FF938091550643
:1015400090915606892B29F0E0915506F0915606A8
:101550000995FF91EF91BF91AF919F918F917F91ED
:101560006F915F914F913F912F910F900FBE0F9010
:101570001F9018951F920F920FB60F9211242F9360
:101580003F938F939F93AF93BF9380915806909111
:101590005906A0915A06B0915B063091570623E098
:1015A000230F2D3720F40196A11DB11D05C026E89B
:1015B000230F0296A11DB11D209357068093580654
:1015C00090935906A0935A06B0935B0680915C06EF
:1015D00090915D06A0915E06B0915F060196A11DF7
:1015E000B11D80935C0690935D06A0935E06B09358
:1015F0005F06BF91AF919F918F913F912F910F9077
:101600000FBE0F901F9018953FB7F89480915C061D
:1016100090915D06A0915E06B0915F0626B5A89BED
:1016200005C02F3F19F00196A11DB11D3FBF6627D0
:10163000782F892F9A2F620F711D811D911D42E015
:10164000660F771F881F991F4A95D1F70895CF928B
:10165000DF92EF92FF92CF93DF936B017C010E94A8
:10166000040BEB01C114D104E104F10489F00E94E0
:10167000FD0E0E94040B6C1B7D0B683E734090F3C3
:1016800081E0C81AD108E108F108C851DC4FEACF5F
:10169000DF91CF91FF90EF90DF90CF9008957894F5
:1016A00084B5826084BD84B5816084BD85B5826067
:1016B00085BD85B5816085BDEEE6F0E08081816005
:1016C0008083E1E8F0E01082808182608083808105
:1016D00081608083E0E8F0E0808181608083E1EBDD
:1016E000F0E0808184608083E0EBF0E080818160C5
:1016F0008083EAE7F0E0808184608083808182607B
:101700008083808181608083808180688083109263
:10171000C1000895833081F028F4813099F082303F
:10172000A1F008958730A9F08830B9F08430D1F461
:10173000809180008F7D03C0809180008F7780939F
:101740008000089584B58F7702C084B58F7D84BDF5
:1017500008958091B0008F7703C08091B0008F7D95
:101760008093B0000895CF93DF9390E0FC01E15C9B
:10177000FD4F2491FC01ED5AFD4F8491882349F1DE
:1017800090E0880F991FFC01EF58FD4FA591B4918F
:1017900089599D4FFC01C591D4919FB7611108C033
:1017A000F8948C91209582238C93888182230AC09F
:1017B000623051F4F8948C91322F309583238C93BE
:1017C0008881822B888304C0F8948C91822B8C931F
:1017D0009FBFDF91CF9108950F931F93CF93DF9316
:1017E0001F92CDB7DEB7282F30E0F901E55DFD4F40
:1017F0008491F901E15CFD4F1491F901ED5AFD4F1F
:1018000004910023C9F0882321F069830E948A0B88
:101810006981E02FF0E0EE0FFF1FE959FD4FA59120
:10182000B4919FB7F8948C91611103C010958123F6
:1018300001C0812B8C939FBF0F90DF91CF911F919F
:101840000F910895FC01818D228D90E0805C9F4F67
:10185000821B91098F7399270895FC01918D828DC8
:10186000981731F0828DE80FF11D858D90E0089575
:101870008FEF9FEF0895FC01918D828D981761F095
:10188000828DDF01A80FB11D5D968C91928D9F5FB7
:101890009F73928F90E008958FEF9FEF08958FEBE5
:1018A0009DE0892B49F080E090E0892B29F00E948F
:1018B000BF0D81110C9400000895FC01848DDF019F
:1018C000A80FB11DA35ABF4F2C91848D90E00196B3
:1018D0008F739927848FA689B7892C93A089B189A2
:1018E0008C9180648C93938D848D981306C00288AC
:1018F000F389E02D80818F7D80830895CF93DF93DE
:10190000EC01888D8823C9F0EA89FB89808185FDF7
:1019100005C0A889B9898C9186FD0FC00FB607FC58
:10192000F5CF808185FFF2CFA889B9898C9185FF99
:10193000EDCFCE010E945D0CE7CFDF91CF910895EE
:10194000CF92DF92FF920F931F93CF93DF931F925B
:10195000CDB7DEB76C0181E0D60158968C935897CD
:101960005B969C915B975C968C915C97981307C0F3
:101970005096ED91FC915197808185FD2EC0F60126
:10198000038D10E00F5F1F4F0F731127F02EF6012C
:10199000848DF81211C00FB607FCF9CFD60150960E
:1019A000ED91FC915197808185FFF1CFC60169834C
:1019B0000E945D0C6981EBCF838DE80FF11DE35A26
:1019C000FF4F6083D6015B960C935B975296ED9127
:1019D000FC915397808180620CC0D6015696ED91A0
:1019E000FC91579760835096ED91FC9151978081BF
:1019F0008064808381E090E00F90DF91CF911F9110
:101A00000F91FF90DF90CF900895BF92CF92DF9219
:101A1000EF92FF92CF93DF93EC016A017B01B22E2C
:101A2000E889F98982E08083411581EE58076105D4
:101A30007105A1F060E079E08DE390E0A7019601E7
:101A40000E94120F215031094109510956954795BD
:101A500037952795211580E1380798F0E889F989AD
:101A6000108260E874E88EE190E0A70196010E9480
:101A7000120F215031094109510956954795379563
:101A80002795EC85FD853083EE85FF852083188EB4
:101A9000EC89FD89B082EA89FB898081806180833D
:101AA000EA89FB89808188608083EA89FB8980815B
:101AB00080688083EA89FB8980818F7D8083DF91C4
:101AC000CF91FF90EF90DF90CF90BF9008951F923D
:101AD0000F920FB60F9211242F938F939F93EF9332
:101AE000FF93E0917006F09171068081E091760697
:101AF000F091770682FD12C09081809179068F5F08
:101B00008F7320917A06821751F0E0917906F0E008
:101B1000E05AF94F958F8093790601C08081FF913B
:101B2000EF919F918F912F910F900FBE0F901F906B
:101B300018951F920F920FB60F9211242F933F9377
:101B40004F935F936F937F938F939F93AF93BF93C5
:101B5000EF93FF9380E696E00E945D0CFF91EF917A
:101B6000BF91AF919F918F917F916F915F914F91B5
:101B70003F912F910F900FBE0F901F90189580E608
:101B800096E00E94220C21E0892B09F420E0822FAC
:101B90000895109263061092620688EE93E0A0E02A
:101BA000B0E08093640690936506A0936606B093B8
:101BB000670682EC91E0909361068093600685EC65
:101BC00090E090936D0680936C0684EC90E0909387
:101BD0006F0680936E0680EC90E090937106809380
:101BE000700681EC90E0909373068093720682EC0D
:101BF00090E0909375068093740686EC90E0909345
:101C00007706809376061092790610927A061092E3
:101C10007B0610927C06089508950E944F0B0E9447
:101C20000C0E0E949903CFE4DCE00E94030420978D
:101C3000E1F30E944F0CF9CFCF92DF92EF92FF9227
:101C40000F931F93CF93DF936C017A01EB01E60EA4
:101C5000F71E00E010E0CE15DF0561F06991D601B6
:101C6000ED91FC910190F081E02DC6010995080FDE
:101C7000191FF1CFC801DF91CF911F910F91FF90F4
:101C8000EF90DF90CF9008956115710581F0DB0131
:101C90000D900020E9F7AD0141505109461B570B4B
:101CA000DC01ED91FC910280F381E02D099480E04C
:101CB00090E008950C94440EDC01ED91FC910190AC
:101CC000F081E02D09946EEC71E00C94440E0F93BA
:101CD0001F93CF93DF93EC010E94440E8C01CE0141
:101CE0000E94630E800F911FDF91CF911F910F9182
:101CF00008958F929F92AF92BF92CF92DF92EF9210
:101D0000FF920F931F93CF93DF93CDB7DEB7A197C9
:101D10000FB6F894DEBF0FBECDBF7C01C42EE52FF9
:101D2000CB01D22E19A221E02D1510F02AE0D22EDF
:101D30008E010F5D1F4F8D2C912CA12CB12C6C2D81
:101D40007E2FA50194010E94120F8C2DD29E801926
:101D50001124015011098A3014F4805D01C0895C9E
:101D6000F8018083211531054105510521F0C22E6E
:101D7000E32FCA01E4CFB801C7010E94440EA19627
:101D80000FB6F894DEBF0FBECDBFDF91CF911F918C
:101D90000F91FF90EF90DF90CF90BF90AF909F900A
:101DA0008F9008952115310541F4DC01ED91FC91EE
:101DB0000190F081E02D642F09940C94790E9A0122
:101DC000462F50E060E070E00C94D20E0F931F930A
:101DD000CF93DF93EC019A01462F50E060E070E072
:101DE0000E94D20E8C01CE010E94630E800F911FC3
:101DF000DF91CF911F910F910895089597FB072EC2
:101E000016F4009407D077FD09D00E945E0F07FCFE
:101E100005D03EF4909581959F4F089570956195FA
:101E20007F4F0895A1E21A2EAA1BBB1BFD010DC016
:101E3000AA1FBB1FEE1FFF1FA217B307E407F5077A
:101E400020F0A21BB30BE40BF50B661F771F881F56
:101E5000991F1A9469F760957095809590959B01EC
:101E6000AC01BD01CF01089597FB10F8169400084E
:101E70000F93083098F00850232F342F452F562FFA
:101E8000672F782F892F902DF4CF059497958795FC
:101E90007795679557954795379527950A95AAF7AA
:101EA0000F9108950024A7FD00942A1730054005DE
:101EB000500560057005800590050895AA1BBB1BA1
:101EC00051E107C0AA1FBB1FA617B70710F0A61B3A
:101ED000B70B881F991F5A95A9F780959095BC015B
:101EE000CD010895EE0FFF1F0590F491E02D0994A8
:101EF000FC0105900020E9F7809590958E0F9F1FBB
:101F000008950F931F93CF93DF93EC018B010097FC
:101F100031F46115710519F480E090E038C06EE08D
:101F200070E081E090E00E94D411FC010097A1F3E1
:101F300080E883830115110571F01387028781E81A
:101F400083838091FD069091FE06892B21F4F09306
:101F5000FE06E093FD062097C9F0D187C0878381F4
:101F6000826083838091FF0690910007892B71F432
:101F7000F0930007E093FF0680910107909102071C
:101F8000892B21F4F0930207E0930107CF01DF9141
:101F9000CF911F910F910895A0E0B0E0E2EDFFE036
:101FA0000C94D413FE01359661917191AF0180912B
:101FB000FF06909100070E940210E2E00C94F013DB
:101FC000A0E0B0E0E6EEFFE00C94D213FE013796FD
:101FD000619171910FEF16E0D8018D919C91DC0118
:101FE00013962C911397286013962C93AF010E949F
:101FF0000210D801ED91FC912381277F2383E4E037
:102000000C94EE13ACE0B0E0E8E0F0E10C94C41303
:102010007C016B018A01FC0117821682838181FF9A
:10202000BDC1CE0101964C01F7019381F60193FDEC
:10203000859193FF81916F01882309F4ABC18532AB
:1020400039F493FD859193FF81916F01853229F4D5
:10205000B70190E00E943413E7CF512C312C20E0DF
:102060002032A0F48B3269F030F4803259F08332A0
:1020700069F420612CC08D3239F0803339F421604D
:1020800026C02260246023C0286021C027FD27C00D
:1020900030ED380F3A3078F426FF06C0FAE05F9E44
:1020A000300D1124532E13C08AE0389E300D1124B8
:1020B000332E20620CC08E3221F426FD6BC12064C9
:1020C00006C08C3611F4206802C0883641F4F6014F
:1020D00093FD859193FF81916F018111C1CF982F5D
:1020E0009F7D9554933028F40C5F1F4FFFE3F983D5
:1020F0000DC0833631F0833771F0833509F05BC052
:1021000022C0F801808189830E5F1F4F44244394CD
:10211000512C540115C03801F2E06F0E711CF8010A
:10212000A080B18026FF03C0652D70E002C06FEF74
:102130007FEFC5012C870E9429132C0183012C8578
:102140002F77222E17C03801F2E06F0E711CF801B4
:10215000A080B18026FF03C0652D70E002C06FEF44
:102160007FEFC5012C870E9417132C012C85206856
:10217000222E830123FC1BC0832D90E048165906B4
:10218000B0F4B70180E290E00E9434133A94F4CFA7
:10219000F50127FC859127FE81915F01B70190E051
:1021A0000E94341331103A94F1E04F1A510841144F
:1021B000510471F7E5C0843611F0893639F5F8011C
:1021C00027FF07C060817181828193810C5F1F4F5F
:1021D00008C060817181882777FD8095982F0E5FF8
:1021E0001F4F2F76B22E97FF09C09095809570955E
:1021F00061957F4F8F4F9F4F2068B22E2AE030E0CD
:10220000A4010E946613A82EA81844C0853729F49B
:102210002F7EB22E2AE030E025C0F22FF97FBF2EAC
:102220008F36C1F018F4883579F0B4C0803719F0D2
:10223000883721F0AFC02F2F2061B22EB4FE0DC021
:102240008B2D8460B82E09C024FF0AC09F2F966092
:10225000B92E06C028E030E005C020E130E002C021
:1022600020E132E0F801B7FE07C060817181828110
:1022700093810C5F1F4F06C06081718180E090E008
:102280000E5F1F4FA4010E946613A82EA818FB2DF5
:10229000FF77BF2EB6FE0BC02B2D2E7FA51450F45A
:1022A000B4FE0AC0B2FC08C02B2D2E7E05C07A2CCD
:1022B0002B2D03C07A2C01C0752C24FF0DC0FE010C
:1022C000EA0DF11D8081803311F4297E09C022FFBF
:1022D00006C07394739404C0822F867809F07394B7
:1022E00023FD13C020FF06C05A2C731418F4530C9E
:1022F0005718732C731468F4B70180E290E02C87B0
:102300000E94341373942C85F5CF731410F437188E
:1023100001C0312C24FF12C0B70180E390E02C876C
:102320000E9434132C8522FF17C021FF03C088E5CB
:1023300090E002C088E790E0B7010CC0822F867859
:1023400059F021FD02C080E201C08BE227FD8DE241
:10235000B70190E00E943413A51438F4B70180E36C
:1023600090E00E9434135A94F7CFAA94F401EA0D36
:10237000F11D8081B70190E00E943413A110F5CFC8
:10238000332009F451CEB70180E290E00E9434136B
:102390003A94F6CFF7018681978102C08FEF9FEFC5
:1023A0002C96E2E10C94E0130F931F93CF93DF93ED
:1023B000869F8001879F100D969F100D1124C801E4
:1023C0000E94F011EC01009729F0A80160E070E094
:1023D0000E942213CE01DF91CF911F910F9108959A
:1023E000CF93DF938230910510F482E090E0E0918A
:1023F0000507F091060720E030E0A0E0B0E030975C
:1024000039F14081518148175907B8F048175907E9
:1024100071F482819381109729F013969C938E9387
:1024200012972CC0909306078093050727C02115AB
:10243000310531F04217530718F0A901DB0101C043
:10244000EF019A01BD01DF010280F381E02DD7CFBA
:1024500021153105F9F0281B390B2430310580F4A2
:102460008A819B816115710521F0FB019383828331
:1024700004C09093060780930507FE01329644C07E
:10248000FE01E20FF31F81939193225031093983AA
:1024900028833AC02091030730910407232B41F48D
:1024A0002091020130910301309304072093030728
:1024B00020910001309101012115310541F42DB722
:1024C0003EB74091040150910501241B350BE0916A
:1024D0000307F0910407E217F307A0F42E1B3F0B4C
:1024E0002817390778F0AC014E5F5F4F2417350786
:1024F00048F04E0F5F1F50930407409303078193EA
:10250000919302C0E0E0F0E0CF01DF91CF91089518
:10251000CF93DF93009709F487C0FC0132971382B1
:102520001282C0910507D0910607209781F420817F
:102530003181280F391F809103079091040782177A
:10254000930779F5F0930407E09303076DC0DE016C
:1025500020E030E0AE17BF0750F412964D915C9129
:1025600013979D014115510509F1DA01F3CFB383AA
:10257000A28340815181840F951F8A179B0771F4B4
:102580008D919C911197840F951F02969183808362
:1025900012968D919C911397938382832115310517
:1025A00029F4F0930607E09305073EC0D90113967E
:1025B000FC93EE9312974D915D91A40FB51FEA170E
:1025C000FB0779F480819181840F951F0296D901D0
:1025D00011969C938E938281938113969C938E93F4
:1025E0001297E0E0F0E08A819B81009719F0FE01EC
:1025F000EC01F9CFCE01029628813981820F931F19
:1026000020910307309104072817390769F43097A0
:1026100029F4109206071092050702C01382128255
:10262000D0930407C0930307DF91CF910895FC0175
:102630000590615070400110D8F7809590958E0FED
:102640009F1F0895DC0101C06D9341505040E0F799
:102650000895FC016150704001900110D8F78095F9
:1026600090958E0F9F1F08950F931F93CF93DF9325
:10267000182F092FEB018B8181FD03C08FEF9FEF96
:1026800020C082FF10C04E815F812C813D814217A6
:1026900053077CF4E881F9819F012F5F3F4F398315
:1026A0002883108306C0E885F985812F0995892B39
:1026B00029F72E813F812F5F3F4F3F832E83812F4C
:1026C000902FDF91CF911F910F910895FA01AA27C2
:1026D000283051F1203181F1E8946F936E7F6E5F65
:1026E0007F4F8F4F9F4FAF4FB1E03ED0B4E03CD013
:1026F000670F781F891F9A1FA11D680F791F8A1FF6
:10270000911DA11D6A0F711D811D911DA11D20D05C
:1027100009F468943F912AE0269F11243019305D16
:102720003193DEF6CF010895462F4770405D419307
:10273000B3E00FD0C9F7F6CF462F4F70405D4A3354
:1027400018F0495D31FD4052419302D0A9F7EACF1C
:10275000B4E0A6959795879577956795BA95C9F74B
:1027600000976105710508959B01AC010A2E06943E
:102770005795479537952795BA95C9F7620F731FF7
:10278000841F951FA01D08952F923F924F925F9234
:102790006F927F928F929F92AF92BF92CF92DF9271
:1027A000EF92FF920F931F93CF93DF93CDB7DEB7D6
:1027B000CA1BDB0B0FB6F894DEBF0FBECDBF09946A
:1027C0002A88398848885F846E847D848C849B84C1
:1027D000AA84B984C884DF80EE80FD800C811B81CF
:1027E000AA81B981CE0FD11D0FB6F894DEBF0FBEFE
:0A27F000CDBFED010895F894FFCF6E
:1027FA000000070780004C02050400FCE1A8A800BD
:10280A000000022025303278004368616E6E656CE4
:10281A003A20202020200044617461726174653A74
:10282A002020202000314D622F7300324D622F7319
:10283A00003235304B622F730041646472657373E2
:10284A003A20202020203078002A2A004D61782062
:10285A007061796C6F61643A2000435243206C6561
:10286A006E6774683A2020004C697374656E696EED
:10287A00672E2E2E002D2D205246323420536E699B
:10288A006666202D2D00204C6F73743A2000496C27
:10289A006C6567616C20636F6E66696775726174D7
:1028AA00696F6E2072656365697665642100000050
:1028BA000000A00C1C0E220C3B0C2D0C7E0C0D0AE9
:0E28CA00006E616E00696E66006F766600003B
:00000001FF
